{
  "address": "0x6e424eE26817e5B80Ec19d657d3a2DD2752D1201",
  "abi": [
    {
      "anonymous": false,
      "inputs": [
        {
          "indexed": true,
          "internalType": "address",
          "name": "previousOwner",
          "type": "address"
        },
        {
          "indexed": true,
          "internalType": "address",
          "name": "newOwner",
          "type": "address"
        }
      ],
      "name": "OwnershipTransferred",
      "type": "event"
    },
    {
      "inputs": [
        {
          "internalType": "address",
          "name": "_account",
          "type": "address"
        },
        {
          "internalType": "uint256",
          "name": "_allocPoint",
          "type": "uint256"
        },
        {
          "internalType": "bool",
          "name": "_withUpdate",
          "type": "bool"
        }
      ],
      "name": "add",
      "outputs": [],
      "stateMutability": "nonpayable",
      "type": "function"
    },
    {
      "inputs": [
        {
          "internalType": "uint256",
          "name": "_memberId",
          "type": "uint256"
        },
        {
          "internalType": "address",
          "name": "_account",
          "type": "address"
        }
      ],
      "name": "changeAddress",
      "outputs": [],
      "stateMutability": "nonpayable",
      "type": "function"
    },
    {
      "inputs": [
        {
          "internalType": "uint256",
          "name": "_memberId",
          "type": "uint256"
        }
      ],
      "name": "claim",
      "outputs": [],
      "stateMutability": "nonpayable",
      "type": "function"
    },
    {
      "inputs": [],
      "name": "czfPerBlock",
      "outputs": [
        {
          "internalType": "uint256",
          "name": "",
          "type": "uint256"
        }
      ],
      "stateMutability": "view",
      "type": "function"
    },
    {
      "inputs": [
        {
          "internalType": "uint256",
          "name": "_memberId",
          "type": "uint256"
        }
      ],
      "name": "getPending",
      "outputs": [
        {
          "internalType": "uint256",
          "name": "amount_",
          "type": "uint256"
        }
      ],
      "stateMutability": "view",
      "type": "function"
    },
    {
      "inputs": [],
      "name": "lastMintBlock",
      "outputs": [
        {
          "internalType": "uint256",
          "name": "",
          "type": "uint256"
        }
      ],
      "stateMutability": "view",
      "type": "function"
    },
    {
      "inputs": [],
      "name": "massUpdateMembers",
      "outputs": [],
      "stateMutability": "nonpayable",
      "type": "function"
    },
    {
      "inputs": [
        {
          "internalType": "uint256",
          "name": "",
          "type": "uint256"
        }
      ],
      "name": "members",
      "outputs": [
        {
          "internalType": "address",
          "name": "account",
          "type": "address"
        },
        {
          "internalType": "uint256",
          "name": "lastUpdatedBlock",
          "type": "uint256"
        },
        {
          "internalType": "uint256",
          "name": "allocPoint",
          "type": "uint256"
        },
        {
          "internalType": "uint256",
          "name": "debt",
          "type": "uint256"
        }
      ],
      "stateMutability": "view",
      "type": "function"
    },
    {
      "inputs": [],
      "name": "mintCZFToStream",
      "outputs": [],
      "stateMutability": "nonpayable",
      "type": "function"
    },
    {
      "inputs": [],
      "name": "owner",
      "outputs": [
        {
          "internalType": "address",
          "name": "",
          "type": "address"
        }
      ],
      "stateMutability": "view",
      "type": "function"
    },
    {
      "inputs": [],
      "name": "renounceOwnership",
      "outputs": [],
      "stateMutability": "nonpayable",
      "type": "function"
    },
    {
      "inputs": [
        {
          "internalType": "uint256",
          "name": "amount",
          "type": "uint256"
        },
        {
          "internalType": "bool",
          "name": "_withUpdate",
          "type": "bool"
        }
      ],
      "name": "setCZFPerBlock",
      "outputs": [],
      "stateMutability": "nonpayable",
      "type": "function"
    },
    {
      "inputs": [],
      "name": "token",
      "outputs": [
        {
          "internalType": "address",
          "name": "",
          "type": "address"
        }
      ],
      "stateMutability": "view",
      "type": "function"
    },
    {
      "inputs": [],
      "name": "totalAllocPoints",
      "outputs": [
        {
          "internalType": "uint256",
          "name": "",
          "type": "uint256"
        }
      ],
      "stateMutability": "view",
      "type": "function"
    },
    {
      "inputs": [
        {
          "internalType": "address",
          "name": "newOwner",
          "type": "address"
        }
      ],
      "name": "transferOwnership",
      "outputs": [],
      "stateMutability": "nonpayable",
      "type": "function"
    },
    {
      "inputs": [
        {
          "internalType": "uint256",
          "name": "_memberId",
          "type": "uint256"
        },
        {
          "internalType": "uint256",
          "name": "_allocPoint",
          "type": "uint256"
        },
        {
          "internalType": "bool",
          "name": "_withUpdate",
          "type": "bool"
        }
      ],
      "name": "update",
      "outputs": [],
      "stateMutability": "nonpayable",
      "type": "function"
    },
    {
      "inputs": [
        {
          "internalType": "uint256",
          "name": "_memberId",
          "type": "uint256"
        }
      ],
      "name": "updateMember",
      "outputs": [],
      "stateMutability": "nonpayable",
      "type": "function"
    }
  ],
  "transactionHash": "0x1e4b65006a286aa4d83dcbd29fe4a73a5938cac552a8a7a20f1e3e93fdd3c270",
  "args": [],
  "solcInputHash": "96974f27222ad5084cc0641755a6db4b",
  "bytecode": "0x6080604052737c1608c004f20c3520f70b924e2bfef092da0043600560006101000a81548173ffffffffffffffffffffffffffffffffffffffff021916908373ffffffffffffffffffffffffffffffffffffffff16021790555034801561006557600080fd5b5061008261007761008760201b60201c565b61008f60201b60201c565b610153565b600033905090565b60008060009054906101000a900473ffffffffffffffffffffffffffffffffffffffff169050816000806101000a81548173ffffffffffffffffffffffffffffffffffffffff021916908373ffffffffffffffffffffffffffffffffffffffff1602179055508173ffffffffffffffffffffffffffffffffffffffff168173ffffffffffffffffffffffffffffffffffffffff167f8be0079c531659141344cd1fd0a4f28419497f9722a3daafe3b4186f6b6457e060405160405180910390a35050565b6113ea806101626000396000f3fe608060405234801561001057600080fd5b506004361061010a5760003560e01c8063715018a6116100a25780639f6002db116100715780639f6002db1461026e578063b5087fc31461028a578063f2fde38b14610294578063f8d1ffd9146102b0578063fc0c546a146102cc5761010a565b8063715018a6146101f857806384f89a93146102025780638da5cb5b146102325780639cf5c3f5146102505761010a565b806327c8ea4d116100de57806327c8ea4d1461016f5780632ee7d47d1461018d578063379607f5146101a95780635daf08ca146101c55761010a565b80629205121461010f5780630dec2312146101195780631d5ad18b146101355780631fa36cbe14610151575b600080fd5b6101176102ea565b005b610133600480360381019061012e9190610e5b565b6103af565b005b61014f600480360381019061014a9190610ed3565b610540565b005b61015961064a565b60405161016691906110c7565b60405180910390f35b610177610650565b60405161018491906110c7565b60405180910390f35b6101a760048036038101906101a29190610f4b565b610656565b005b6101c360048036038101906101be9190610eaa565b6107a0565b005b6101df60048036038101906101da9190610eaa565b6108cc565b6040516101ef9493929190611042565b60405180910390f35b61020061092c565b005b61021c60048036038101906102179190610eaa565b6109b4565b60405161022991906110c7565b60405180910390f35b61023a610a51565b6040516102479190610ffe565b60405180910390f35b610258610a7a565b60405161026591906110c7565b60405180910390f35b61028860048036038101906102839190610eaa565b610a80565b005b610292610afe565b005b6102ae60048036038101906102a99190610e32565b610b35565b005b6102ca60048036038101906102c59190610f0f565b610c2d565b005b6102d4610cc3565b6040516102e19190610ffe565b60405180910390f35b600060045414156102fd57436004819055505b600560009054906101000a900473ffffffffffffffffffffffffffffffffffffffff1673ffffffffffffffffffffffffffffffffffffffff166340c10f19306004544361034a91906111d4565b600354610357919061117a565b6040518363ffffffff1660e01b8152600401610374929190611019565b600060405180830381600087803b15801561038e57600080fd5b505af11580156103a2573d6000803e3d6000fd5b5050505043600481905550565b6103b7610ce9565b73ffffffffffffffffffffffffffffffffffffffff166103d5610a51565b73ffffffffffffffffffffffffffffffffffffffff161461042b576040517f08c379a0000000000000000000000000000000000000000000000000000000008152600401610422906110a7565b60405180910390fd5b801561043a57610439610afe565b5b610442610db5565b83816000019073ffffffffffffffffffffffffffffffffffffffff16908173ffffffffffffffffffffffffffffffffffffffff1681525050828160400181815250504381602001818152505082600260008282546104a091906110f3565b92505081905550600181908060018154018082558091505060019003906000526020600020906004020160009091909190915060008201518160000160006101000a81548173ffffffffffffffffffffffffffffffffffffffff021916908373ffffffffffffffffffffffffffffffffffffffff160217905550602082015181600101556040820151816002015560608201518160030155505050505050565b610548610ce9565b73ffffffffffffffffffffffffffffffffffffffff16610566610a51565b73ffffffffffffffffffffffffffffffffffffffff16146105bc576040517f08c379a00000000000000000000000000000000000000000000000000000000081526004016105b3906110a7565b60405180910390fd5b80600183815481106105f7577f4e487b7100000000000000000000000000000000000000000000000000000000600052603260045260246000fd5b906000526020600020906004020160000160006101000a81548173ffffffffffffffffffffffffffffffffffffffff021916908373ffffffffffffffffffffffffffffffffffffffff1602179055505050565b60025481565b60035481565b61065e610ce9565b73ffffffffffffffffffffffffffffffffffffffff1661067c610a51565b73ffffffffffffffffffffffffffffffffffffffff16146106d2576040517f08c379a00000000000000000000000000000000000000000000000000000000081526004016106c9906110a7565b60405180910390fd5b80156106e1576106e0610afe565b5b816001848154811061071c577f4e487b7100000000000000000000000000000000000000000000000000000000600052603260045260246000fd5b90600052602060002090600402016002015460025461073b91906111d4565b61074591906110f3565b6002819055508160018481548110610786577f4e487b7100000000000000000000000000000000000000000000000000000000600052603260045260246000fd5b906000526020600020906004020160020181905550505050565b6107a86102ea565b6000600182815481106107e4577f4e487b7100000000000000000000000000000000000000000000000000000000600052603260045260246000fd5b9060005260206000209060040201905060006107ff836109b4565b905060008260030181905550438260010181905550600560009054906101000a900473ffffffffffffffffffffffffffffffffffffffff1673ffffffffffffffffffffffffffffffffffffffff1663a9059cbb8360000160009054906101000a900473ffffffffffffffffffffffffffffffffffffffff16836040518363ffffffff1660e01b8152600401610895929190611019565b600060405180830381600087803b1580156108af57600080fd5b505af11580156108c3573d6000803e3d6000fd5b50505050505050565b600181815481106108dc57600080fd5b90600052602060002090600402016000915090508060000160009054906101000a900473ffffffffffffffffffffffffffffffffffffffff16908060010154908060020154908060030154905084565b610934610ce9565b73ffffffffffffffffffffffffffffffffffffffff16610952610a51565b73ffffffffffffffffffffffffffffffffffffffff16146109a8576040517f08c379a000000000000000000000000000000000000000000000000000000000815260040161099f906110a7565b60405180910390fd5b6109b26000610cf1565b565b600080600183815481106109f1577f4e487b7100000000000000000000000000000000000000000000000000000000600052603260045260246000fd5b9060005260206000209060040201905080600301546002548260020154836001015443610a1e91906111d4565b600354610a2b919061117a565b610a35919061117a565b610a3f9190611149565b610a4991906110f3565b915050919050565b60008060009054906101000a900473ffffffffffffffffffffffffffffffffffffffff16905090565b60045481565b600060018281548110610abc577f4e487b7100000000000000000000000000000000000000000000000000000000600052603260045260246000fd5b90600052602060002090600402019050600081600201541415610adf5750610afb565b610ae8826109b4565b8160030181905550438160010181905550505b50565b610b066102ea565b60005b600180549050811015610b3257610b1f81610a80565b8080610b2a90611250565b915050610b09565b50565b610b3d610ce9565b73ffffffffffffffffffffffffffffffffffffffff16610b5b610a51565b73ffffffffffffffffffffffffffffffffffffffff1614610bb1576040517f08c379a0000000000000000000000000000000000000000000000000000000008152600401610ba8906110a7565b60405180910390fd5b600073ffffffffffffffffffffffffffffffffffffffff168173ffffffffffffffffffffffffffffffffffffffff161415610c21576040517f08c379a0000000000000000000000000000000000000000000000000000000008152600401610c1890611087565b60405180910390fd5b610c2a81610cf1565b50565b610c35610ce9565b73ffffffffffffffffffffffffffffffffffffffff16610c53610a51565b73ffffffffffffffffffffffffffffffffffffffff1614610ca9576040517f08c379a0000000000000000000000000000000000000000000000000000000008152600401610ca0906110a7565b60405180910390fd5b8015610cb857610cb7610afe565b5b816003819055505050565b600560009054906101000a900473ffffffffffffffffffffffffffffffffffffffff1681565b600033905090565b60008060009054906101000a900473ffffffffffffffffffffffffffffffffffffffff169050816000806101000a81548173ffffffffffffffffffffffffffffffffffffffff021916908373ffffffffffffffffffffffffffffffffffffffff1602179055508173ffffffffffffffffffffffffffffffffffffffff168173ffffffffffffffffffffffffffffffffffffffff167f8be0079c531659141344cd1fd0a4f28419497f9722a3daafe3b4186f6b6457e060405160405180910390a35050565b6040518060800160405280600073ffffffffffffffffffffffffffffffffffffffff1681526020016000815260200160008152602001600081525090565b600081359050610e028161136f565b92915050565b600081359050610e1781611386565b92915050565b600081359050610e2c8161139d565b92915050565b600060208284031215610e4457600080fd5b6000610e5284828501610df3565b91505092915050565b600080600060608486031215610e7057600080fd5b6000610e7e86828701610df3565b9350506020610e8f86828701610e1d565b9250506040610ea086828701610e08565b9150509250925092565b600060208284031215610ebc57600080fd5b6000610eca84828501610e1d565b91505092915050565b60008060408385031215610ee657600080fd5b6000610ef485828601610e1d565b9250506020610f0585828601610df3565b9150509250929050565b60008060408385031215610f2257600080fd5b6000610f3085828601610e1d565b9250506020610f4185828601610e08565b9150509250929050565b600080600060608486031215610f6057600080fd5b6000610f6e86828701610e1d565b9350506020610f7f86828701610e1d565b9250506040610f9086828701610e08565b9150509250925092565b610fa381611208565b82525050565b6000610fb66026836110e2565b9150610fc1826112f7565b604082019050919050565b6000610fd96020836110e2565b9150610fe482611346565b602082019050919050565b610ff881611246565b82525050565b60006020820190506110136000830184610f9a565b92915050565b600060408201905061102e6000830185610f9a565b61103b6020830184610fef565b9392505050565b60006080820190506110576000830187610f9a565b6110646020830186610fef565b6110716040830185610fef565b61107e6060830184610fef565b95945050505050565b600060208201905081810360008301526110a081610fa9565b9050919050565b600060208201905081810360008301526110c081610fcc565b9050919050565b60006020820190506110dc6000830184610fef565b92915050565b600082825260208201905092915050565b60006110fe82611246565b915061110983611246565b9250827fffffffffffffffffffffffffffffffffffffffffffffffffffffffffffffffff0382111561113e5761113d611299565b5b828201905092915050565b600061115482611246565b915061115f83611246565b92508261116f5761116e6112c8565b5b828204905092915050565b600061118582611246565b915061119083611246565b9250817fffffffffffffffffffffffffffffffffffffffffffffffffffffffffffffffff04831182151516156111c9576111c8611299565b5b828202905092915050565b60006111df82611246565b91506111ea83611246565b9250828210156111fd576111fc611299565b5b828203905092915050565b600061121382611226565b9050919050565b60008115159050919050565b600073ffffffffffffffffffffffffffffffffffffffff82169050919050565b6000819050919050565b600061125b82611246565b91507fffffffffffffffffffffffffffffffffffffffffffffffffffffffffffffffff82141561128e5761128d611299565b5b600182019050919050565b7f4e487b7100000000000000000000000000000000000000000000000000000000600052601160045260246000fd5b7f4e487b7100000000000000000000000000000000000000000000000000000000600052601260045260246000fd5b7f4f776e61626c653a206e6577206f776e657220697320746865207a65726f206160008201527f6464726573730000000000000000000000000000000000000000000000000000602082015250565b7f4f776e61626c653a2063616c6c6572206973206e6f7420746865206f776e6572600082015250565b61137881611208565b811461138357600080fd5b50565b61138f8161121a565b811461139a57600080fd5b50565b6113a681611246565b81146113b157600080fd5b5056fea2646970667358221220e9d7e8fd4aeffacbd742dc3cd56afa648061168f2134f2be6f083c7b3c73d16f64736f6c63430008040033",
  "devdoc": {
    "kind": "dev",
    "methods": {
      "owner()": {
        "details": "Returns the address of the current owner."
      },
      "renounceOwnership()": {
        "details": "Leaves the contract without owner. It will not be possible to call `onlyOwner` functions anymore. Can only be called by the current owner. NOTE: Renouncing ownership will leave the contract without an owner, thereby removing any functionality that is only available to the owner."
      },
      "transferOwnership(address)": {
        "details": "Transfers ownership of the contract to a new account (`newOwner`). Can only be called by the current owner."
      }
    },
    "version": 1
  },
  "userdoc": {
    "kind": "user",
    "methods": {},
    "version": 1
  },
  "storageLayout": {
    "storage": [
      {
        "astId": 7,
        "contract": "contracts/CZFTeamStream.sol:CZFTeamStream",
        "label": "_owner",
        "offset": 0,
        "slot": "0",
        "type": "t_address"
      },
      {
        "astId": 159,
        "contract": "contracts/CZFTeamStream.sol:CZFTeamStream",
        "label": "members",
        "offset": 0,
        "slot": "1",
        "type": "t_array(t_struct(Member)155_storage)dyn_storage"
      },
      {
        "astId": 161,
        "contract": "contracts/CZFTeamStream.sol:CZFTeamStream",
        "label": "totalAllocPoints",
        "offset": 0,
        "slot": "2",
        "type": "t_uint256"
      },
      {
        "astId": 163,
        "contract": "contracts/CZFTeamStream.sol:CZFTeamStream",
        "label": "czfPerBlock",
        "offset": 0,
        "slot": "3",
        "type": "t_uint256"
      },
      {
        "astId": 165,
        "contract": "contracts/CZFTeamStream.sol:CZFTeamStream",
        "label": "lastMintBlock",
        "offset": 0,
        "slot": "4",
        "type": "t_uint256"
      },
      {
        "astId": 168,
        "contract": "contracts/CZFTeamStream.sol:CZFTeamStream",
        "label": "token",
        "offset": 0,
        "slot": "5",
        "type": "t_address"
      }
    ],
    "types": {
      "t_address": {
        "encoding": "inplace",
        "label": "address",
        "numberOfBytes": "20"
      },
      "t_array(t_struct(Member)155_storage)dyn_storage": {
        "base": "t_struct(Member)155_storage",
        "encoding": "dynamic_array",
        "label": "struct CZFTeamStream.Member[]",
        "numberOfBytes": "32"
      },
      "t_struct(Member)155_storage": {
        "encoding": "inplace",
        "label": "struct CZFTeamStream.Member",
        "members": [
          {
            "astId": 148,
            "contract": "contracts/CZFTeamStream.sol:CZFTeamStream",
            "label": "account",
            "offset": 0,
            "slot": "0",
            "type": "t_address"
          },
          {
            "astId": 150,
            "contract": "contracts/CZFTeamStream.sol:CZFTeamStream",
            "label": "lastUpdatedBlock",
            "offset": 0,
            "slot": "1",
            "type": "t_uint256"
          },
          {
            "astId": 152,
            "contract": "contracts/CZFTeamStream.sol:CZFTeamStream",
            "label": "allocPoint",
            "offset": 0,
            "slot": "2",
            "type": "t_uint256"
          },
          {
            "astId": 154,
            "contract": "contracts/CZFTeamStream.sol:CZFTeamStream",
            "label": "debt",
            "offset": 0,
            "slot": "3",
            "type": "t_uint256"
          }
        ],
        "numberOfBytes": "128"
      },
      "t_uint256": {
        "encoding": "inplace",
        "label": "uint256",
        "numberOfBytes": "32"
      }
    }
  }
}